:100000000C942A000C9434000C9434000C943400AA
:100010000C9434000C9434000C9434000C94340090
:100020000C9434000C9434000C9434000C94340080
:100030000C9434000C9434000C9434000C94340070
:100040000C9434000C9434000C9434000C94340060
:100050000C94340011241FBECFE5D8E0DEBFCDBF25
:100060000E9436000C944C000C9400008E9A969AD4
:1000700028E833E160E449E150E005C0CA01019796
:10008000F1F72150304021153105C1F782B38627A1
:0C00900082BB28E833E1F2CFF894FFCFE8
:00000001FF
